:020000040800F2
:1000000088B600209D0100084B1400085910000814
:10001000471400084F070008115C000800000000AA
:100020000000000000000000000000006916000849
:100030000308000800000000FD140008C9190008AA
:10004000B7010008B7010008B7010008B7010008B0
:10005000B7010008B7010008B7010008B7010008A0
:10006000B7010008B7010008B7010008B701000890
:10007000B7010008B7010008B7010008B701000880
:10008000B7010008B7010008B7010008B701000870
:10009000B7010008B7010008B70100088908000887
:1000A000B7010008B7010008B7010008B701000850
:1000B000DF1B0008B7010008E91B0008B7010008B2
:1000C000B7010008B7010008B7010008B701000830
:1000D000B7010008491E0008591E0008691E0008E3
:1000E000B7010008B7010008B7010008B701000810
:1000F000B7010008B7010008B7010008B701000800
:10010000B7010008B7010008B7010008B7010008EF
:10011000B7010008B7010008B7010008B7010008DF
:10012000B7010008B7010008B7010008B7010008CF
:10013000B7010008B7010008B7010008B7010008BF
:10014000B7010008B7010008B7010008B7010008AF
:10015000B7010008B7010008B7010008911E0008A8
:10016000B7010008B7010008B7010008B70100088F
:10017000B7010008ED140008B7010008B701000836
:10018000B7010008B7010008DFF80CD000F06CF8E8
:10019000004800471D80000888B6002006488047B8
:1001A00006480047FEE7FEE7FEE7FEE7FEE7FEE75C
:1001B000FEE7FEE7FEE7FEE7551A000889010008A2
:1001C000D2B201E000F8012B491EFBD27047002299
:1001D000F6E710B513460A4604461946FFF7F0FF46
:1001E000204610BD2DE9F05F0546002092469B4653
:1001F00088460646814640241BE02846414647463D
:10020000224600F020F853465A46C01A914110D3B6
:1002100011461846224600F039F82D1A67EB0108FE
:100220004F4622460120002100F030F817EB00096C
:100230004E41201EA4F10104DFDC484631462A4627
:100240004346BDE8F09F202A04DB203A21FA02F061
:100250000021704721FA02F3D040C2F12002914000
:100260000843194670470000064C074D06E0E06859
:1002700040F0010394E8070098471034AC42F6D3ED
:10028000FFF786FFD8320308F8320308202A04DB80
:10029000203A00FA02F1002070479140C2F1200399
:1002A00020FA03F319439040704770B58C1810F88A
:1002B000015B15F0070301D110F8013B2A1106D1AB
:1002C00010F8012B03E010F8016B01F8016B5B1EC5
:1002D000F9D12B0705D40023521E0DD401F8013BA0
:1002E000FAE710F8013BCB1A921C03E013F8015B0C
:1002F00001F8015B521EF9D5A142D8D3002070BD90
:100300001CB50121084601F00BF90121582001F02C
:10031000F7F80C2200214D4800F075FC0C22012159
:100320004A4800F070FC0C220421484800F06BFCA5
:100330000C220521454800F066FC0C2208214348A8
:1003400000F061FC0C220921404800F05CFC0C220A
:100350000A213E4800F057FC0C220E213B4800F0D9
:1003600052FC0C220F21394800F04DFC4CF2337046
:10037000009002208DF8040003208DF80500002075
:100380008DF806008DF807006946304800F0F3FB51
:100390000C2207212E4800F036FC0C2208212C48A4
:1003A00000F031FC0C220921294800F02CFC0C2221
:1003B0000A21274800F027FC0C220B21244800F0DA
:1003C00022FC0C221146224800F01DFC0C220D21BB
:1003D0001F4800F018FC0C220E211D4800F013FCF1
:1003E0000C220F211A4800F00EFC4FF6807000908E
:1003F0006946174800F0BFFB0C221146154800F073
:1004000002FC4FF4805000906946124800F0B3FBA4
:1004100001214FF4C07001F073F801208DF8040041
:1004200003208DF8050000208DF806008DF80700E8
:100430004FF4BC4000906946074800F09CFB102038
:1004400000906946054800F096FB1CBD000C024078
:100450000010024000180240001C02400020024030
:1004600000B597B003200190002002900620039071
:100470000120049000200590069007900620089027
:10048000002009900A9010200B9000200C900D90F5
:100490000E900F9010904FF4805011900020129009
:1004A0001390149001A81590169008A800F0F0FA87
:1004B0000121062000F0D2FA17B000BD00B500F00F
:1004C00007F801200149087000BD000071000020FC
:1004D0004FF0D840008800B2164948804FF0D8400D
:1004E000008801B2134881804FF0D840008801B2E3
:1004F0001048C1804FF0D840008801B20D480181FA
:100500004FF0D840008801B20A4841814FF0D840EE
:10051000008801B2074881814FF0D840008801B2BD
:100520000448C1814FF0D840008801B201480182DF
:1005300070470000AE27002010200449488308833C
:100540000883088308834883704700000020024026
:1005500038B90021074A51704FF48041064A118092
:1005600006E00121034A51708903034A921E11805B
:1005700070470000AE2700201A1C02402C4908706A
:10058000072846D2DFE800F046040E19232E3A0071
:100590004FF40061274A1180491011804910921EC2
:1005A000118043E04FF40061224A11804910921EED
:1005B00011804910921C118038E04FF400611D4AEF
:1005C00011804910921E1180491011802EE04FF4C5
:1005D0000061184A921E11804910921C1180491026
:1005E000118023E04FF40061124A921E11804910DD
:1005F000921C11804910921E118017E04FF4006187
:100600000C4A921E1180491011804910921C1180D1
:100610000CE000BF0021064A11704FF40061054A4A
:100620001180491011804910118000BF00BF704730
:10063000AE2700201A1C02404FF480500349088066
:1006400008800880891E0880704700001A1C02403C
:100650001CB50021164801F000FB0121802000F0AC
:100660004FFF01208DF8040003208DF805000020C5
:100670008DF806008DF807004FF480500090694611
:100680000C4800F078FA4020009000208DF804001B
:100690000C208DF8050000208DF80600684600F05B
:1006A00011F94FF480500349183108801CBD000037
:1006B000000C0040001C024070B505460C4608487E
:1006C0000560204600F00EF800BF054800680028CD
:1006D000FBD100214FF0804001F0BFFA70BD000057
:1006E000400100203EB5044600214FF0804001F05B
:1006F000B4FA00220121880701F02DFB022C02D15F
:100700000B20019004E0012C02D142F6DF60019041
:100710000520ADF800000020ADF80800ADF802009B
:1007200069464FF0804001F04DFB0121880701F040
:1007300091FA0121880701F081FA01221146900700
:1007400001F009FB0121880701F087FA3EBD00BFD7
:10075000FEE70000014609B90B487047012901D1A5
:100760000A48FAE7022901D10948F6E7032901D12D
:100770000020F2E7042901D10020EEE7052901D18C
:100780000448EAE70020E8E760060020880E002021
:10079000B0160020D81E002008B54FF4E06000F02D
:1007A00091FE25208DF8000000208DF80200012028
:1007B0008DF80300684600F049FE26208DF8000001
:1007C00001208DF802008DF80300684600F03EFE1F
:1007D00027208DF8000002208DF8020001208DF8FE
:1007E0000300684600F032FE47208DF80000052027
:1007F0008DF8020001208DF80300684600F026FE07
:1008000008BD704710B51A48008800F4004070B366
:100810001848407920281CD11648C079032818D1DF
:1008200000201549086001201449087002210020A9
:1008300005F0F0FD002007E00021114A42F82010E9
:10084000104A22F81010401C0628F5DB00200D4944
:10085000888108484079102806D10648C0790128C7
:1008600002D103200549087000200149088010BD0D
:100870006E000020660000204800002005000020D7
:10088000540100206C01002010B5402000F00EF84B
:1008900020B1FFF713FE402000F002F810BD000069
:1008A0000149086070470000143C014001460020E7
:1008B000034A12680A400AB1012000E00020704794
:1008C000143C0140002123498279002A3AD00A468B
:1008D000126803689A430B461A600A1D126803687F
:1008E0009A430B1D1A60027911440A6803681A437F
:1008F0000A60184A0832126803689A43154B083395
:100900001A601A1D126803689A43124B0C331A605E
:100910004279102A0ED11A1F126803681A430D4B30
:1009200008331A601A1D126803681A43094B0C3306
:100930001A600DE00749427911440A6803681A43B6
:100940000A6005E0027911440A6803689A430A6064
:1009500070470000003C014010B5FFF753FF00F066
:10096000DBF910BD10B500F003F800F025F810BD5C
:100970001CB50121022000F0C3FD022206210D4812
:1009800000F041F9022207210A4800F03CF9C0209A
:10099000009002208DF8040000208DF8060002204F
:1009A0008DF8070003208DF805006946014800F026
:1009B000E2F81CBD0004024000B587B0012104200C
:1009C00000F0BEFD082005900020ADF81000ADF845
:1009D0001200ADF8180004A91F4801F0F3F9002334
:1009E0001A4603211C4801F044F901A801F0AAF9B4
:1009F0000020ADF80400ADF80C0001A9164801F084
:100A00006AF90420ADF804000020ADF80C0001A93B
:100A1000114801F060F9012211460F4801F09BF9DD
:100A20004FF4C06000F04EFD1E208DF80000002045
:100A30008DF801008DF8020001208DF80300684652
:100A400000F004FD0021044801F08EF90121024864
:100A500001F003F907B000BD0008004051B1820069
:100A6000A2F1C042126842F001038200A2F1C0422A
:100A7000136009E08200A2F1C0421268034B1A40E1
:100A80008300A3F1C0431A6070470000FEFF0F000F
:100A9000D0E901121143C26811430269114342694E
:100AA000114382691143C2691143026A1143426AC8
:100AB0001143826A1143C26A1143026B11430268F7
:100AC0009200A2F1C0421160816808290BD101682F
:100AD0008900A1F1C041096841F040020168890024
:100AE000A1F1C0410A60416B0968426B526841EA5A
:100AF0000211426B926841EA0221426B928941EAFB
:100B00000241426B128A41EA0251426B127D41EA74
:100B10000261426B926911430268521C9200A2F179
:100B2000C0421160C16AB1F5804F1BD1816B096869
:100B3000826B526841EA0211826B926841EA02219B
:100B4000826B128A41EA0251826B127D41EA026194
:100B5000826B9269114302689200A2F1C042C2F80E
:100B6000041107E06FF0704201688900A1F1C041F3
:100B7000C1F804217047F0B50A4600210023002483
:100B800000BF3DE0012505FA01F3156805EA0304FD
:100B90009C4234D105684F000326BE40B543056032
:100BA00015794E00B5400668354305601579012D6D
:100BB00002D01579022D16D185684F000326BE405C
:100BC000B543856055794E00B540866835438560EC
:100BD000456801268E40B5434560456896798E404C
:100BE000B6B235434560C5684F000326BE40B543E5
:100BF000C560D5794E00B540C6683543C560491C0F
:100C00001029BFD3F0BDF0B5002300244D07ED0E31
:100C100002FA05F3CE1000F1200555F826504E07D4
:100C2000F70E0F26BE40B543CF1000F1200646F860
:100C30002750CE1000F1200555F8265045EA030450
:100C4000CE1000F1200545F82640F0BD0146486968
:100C5000806880B2704708B50146D1F8CC000068C2
:100C600000900098C0F3414008BD024602F29B305C
:100C7000405C7047024602F5547050F821007047FE
:100C800070B504460E4600250021C4F8101300BFBD
:100C90000BE0002104F5457040F825103C3040F889
:100CA00025103C304155681CC5B20F2DF1DB0821E1
:100CB000A4F8B2133146204603F06CFE204603F040
:100CC00073FA204603F032F90121204603F0CEFEEC
:100CD000204603F0C4F9204603F0BFFA002070BD9F
:100CE0000146D1F81003704710B50446204603F0C2
:100CF00030FE002010BD70B504460D46002104F200
:100D00009B304155113000EB45104161294620468A
:100D100003F0CEFC70BD000010B5B5480078032884
:100D200007D1012005F0CAFBFFF792FCB14806F09D
:100D3000C9FBAF48007801287ED1002005F0DAF920
:100D400030B1FFF7C5FBFFF777FC0120AA49087017
:100D5000A94800780128EFD10020A7490870A748CA
:100D60000088401CA549088008460088642826DDC4
:100D700008460088B0F5167F21DC00200EE0A04A6E
:100D800032F8102041F2883312FB03F1CA1701EB4D
:100D90005242D2139B4B23F81020401C0628EEDB56
:100DA00000200AE0984951F82010964A32F91020A4
:100DB0001144954A42F82010401C0628F2DB8F4867
:100DC0000088B0F5167F48D100208C49088000BF0C
:100DD0000BE08D4951F820104FF4FA7291FBF2F1BB
:100DE00009B28A4A22F81010401C0628F1DB874815
:100DF0000088864949880844844989880844834989
:100E0000C9880844814909890844804949890844B6
:100E100000B27E498881002005F050FB0220744911
:100E200008707B49002006F035FC7AA17A4806F06C
:100E30001BFD122279A100E00FE06E4806F044FC91
:100E40006C48C16806F04EFB784B302278496948FF
:100E500006F09EFD674806F043FD654800780228CD
:100E60007CD1744800680128FAD1002071490860DB
:100E7000FFF72EFBFFF7E0FB002022E0604A32F88C
:100E8000102041F2883312FB03F1CA1701EB5242E2
:100E9000D213C8325D4B33F81030D21A12B2594B0C
:100EA00023F81020564A32F8102041F2883312FB02
:100EB00003F1CA1701EB5242D2135F4B23F8102003
:100EC000401C0628DADB4F4800884E494988084410
:100ED0004C49898808444B49C988084449490989CB
:100EE0000844484949890844A0F5167000B253499E
:100EF0000880514800885049498808444E498988EB
:100F000008444D49C98808444B49098908444A495D
:100F10004989084400B24A4908804A480068401C90
:100F2000484908605A21002005F007FEA52100204D
:100F300005F003FE1021002005F0FFFD84210020B4
:100F400005F0FBFD7F21002005F0F7FD3B48008800
:100F500081B2002005F0F9FD002408E046E02948B0
:100F600030F8140081B2002005F0EFFD641C062C5F
:100F7000F5DB5A21002005F0E0FDA521002005F059
:100F8000DCFD0721002005F0D8FD8221002005F0BE
:100F9000D4FD0021084605F0D0FD0021084605F0EB
:100FA000CCFD28480168002005F0E1FD254826A178
:100FB0000268264804F03EFE00240AE01E4931F98A
:100FC000142004EB8401224BC8181FA104F032FE48
:100FD000641C062CF2DB1A48B0F900201AA11D4847
:100FE00004F028FE00F042FB00F038FC10BD0000C9
:100FF00005000020E403002004000020060000207B
:10100000B027002048010020540100206C0100207E
:10101000B00100202F0000000C060020B2C9BCAFB8
:10102000CAFDBEDD2E637376000000005400002070
:1010300008000020780000207A0100200200002033
:10104000400000204800002020256400A40100206A
:10105000860100204C00002009A100200BE00A5668
:10106000124B9A8000BF114A128802F04002002AF7
:10107000F9D0421CD0B22A28F1D300BFFEE700000D
:101080000D0A456E74657220486172644661756C24
:10109000745F48616E646C65722C2053797374655B
:1010A0006D2048616C742E0D0A0000000010014094
:1010B00000B587B00121084600F022FA0121102076
:1010C00000F04EFA072209219C48FFF79CFD0722F9
:1010D0000A219A48FFF797FD00208DF81A00012099
:1010E0008DF81B0002208DF81800000205900220E8
:1010F0008DF8190005A99148FFF73DFD02208DF8F4
:1011000018004002059005A98C48FFF734FD4FF404
:10111000E13001900020ADF80800ADF80A00ADF80C
:101120000C00ADF810000C20ADF80E0001A98448A9
:1011300000F01AFF012240F22551814800F0EFFE35
:1011400001217F4800F0B5FE40217D4800F0A8FE57
:101150000121084600F0D4F90121480400F0F0F91B
:10116000072203217548FFF74EFD00208DF81A0075
:1011700001208DF81B0002208DF818008DF8180052
:101180000820059002208DF8190005A96B48FFF78B
:10119000F2FC4FF4165001900020ADF80800ADF8B5
:1011A0000A00ADF80C00ADF810000420ADF80E00F8
:1011B00001A9644800F0D8FE012240F2255161489F
:1011C00000F0ADFE01215F4800F073FE40215D4854
:1011D00000F066FE0121022000F092F901208DF856
:1011E000180000208DF81A008DF81B0003208DF8E0
:1011F00019000420059005A95348FFF7BCFC012104
:10120000022000F07DF90121880400F099F90722FD
:101210000A214D48FFF7F7FC07220B214A48FFF748
:10122000F2FC00208DF81A0001208DF81B0002202E
:101230008DF818004002059002208DF8190005A9CC
:101240004148FFF798FC02208DF8180080020590B5
:1012500005A93D48FFF78FFC4FF416500190002080
:10126000ADF80800ADF80A00ADF80C00ADF81000BC
:101270000C20ADF80E0001A9344800F075FE0122E3
:1012800040F22551314800F04AFE01212F4800F07C
:1012900010FE40212D4800F003FE0121042000F043
:1012A0002FF90121202000F05BF9082206212848AF
:1012B000FFF7A9FC082207212548FFF7A4FC00201E
:1012C0008DF81A0001208DF81B0002208DF81800FF
:1012D0004020059002208DF8190005A91C48FFF751
:1012E0004AFC02208DF818008020059005A91848B6
:1012F000FFF741FC4FF4E13001900020ADF8080009
:10130000ADF80A00ADF80C00ADF810000C20ADF8F7
:101310000E0001A90F4800F027FE012240F22551DE
:101320000C4800F0FCFD01210A4800F0C2FD4021FC
:10133000084800F0B5FD07B000BD00000000024005
:1013400000100140004400400004024000480040FA
:1013500000080240001401400448006900F4807055
:1013600008B9012070470020FCE70000002002407F
:1013700010B5FFF7F1FF20B100F006F808B1012029
:1013800010BD0020FCE700000448006800F4005095
:1013900008B9012070470020FCE700001008024057
:1013A0000448006900F4006008B90120704700207B
:1013B000FCE70000002002400448006800F0040040
:1013C00008B9012070470020FCE70000101C024013
:1013D0000448006800F0080008B9012070470020A8
:1013E000FCE70000101C02400448006800F40060A4
:1013F00008B9012070470020FCE7000010140240EB
:101400000448006800F0800008B9012070470020FF
:10141000FCE70000101802400448006800F4004097
:1014200008B9012070470020FCE70000101C0240B2
:1014300010B5FFF791FF20B1FFF7A6FF08B101201B
:1014400010BD0020FCE700BFFEE7704770B500212B
:1014500000230F22C4781CB3174C246804F4E06402
:10146000C4F5E064C4F30721C1F10404E3B20A4106
:1014700044789C40E1B28478144021430C07210E4B
:101480000E4C05786155047804F01F050124AC402A
:1014900005786D11AD0005F1E025C5F8004109E0C2
:1014A000047804F01F050124AC40054D0678761140
:1014B00045F8264070BD00000CED00E000E400E0BF
:1014C00080E100E002490143024A116070470000D8
:1014D0000000FA050CED00E0024A0A400243024B0C
:1014E0001A60704780FFFF1F08ED00E010B502484A
:1014F00002F0CAF810BD00005870002070470000CC
:1015000029B1064A12680243044B1A6004E0034AF8
:1015100012688243014B1A60704700003038024065
:1015200029B1064A12680243044B1A6004E0034AD8
:1015300012688243014B1A6070470000383802403D
:1015400029B1064A12680243044B1A6004E0034AB8
:1015500012688243014B1A60704700004038024015
:1015600029B1064A12680243044B1A6004E0034A98
:1015700012688243014B1A607047000044380240F1
:10158000F0B5002100220024022500260223324F5C
:101590003F6807F00C0121B1042905D0082937D193
:1015A00005E02E4F076036E02D4F076033E02A4FED
:1015B0003F1F3F68C7F38056274F3F1F3F6807F024
:1015C0003F036EB1264FB7FBF3F7DFF88CC0ACF1E9
:1015D000040CDCF800C0CCF3881C07FB0CF40CE016
:1015E0001E4FB7FBF3F7DFF870C0ACF1040CDCF86A
:1015F00000C0CCF3881C07FB0CF4174F3F1F3F685B
:10160000C7F301477F1C7D00B4FBF5F7076002E0DC
:10161000124F076000BF00BF0F4F3F6807F0F00197
:101620000909104F7A5C0768D74047600A4F3F6846
:1016300007F4E051890A0B4F7A5C4768D74087600E
:10164000054F3F6807F46041490B064F7A5C4768D5
:10165000D740C760F0BD0000083802400024F40005
:1016600040787D017C0000207047000030B5724852
:1016700000887249B1F90010884202D100206E49F9
:1016800008806D4800886E49B1F90010884255DA2B
:1016900000200BE06B490A5C6B494B884988491C68
:1016A000694C618004F10901CA54401C0A28F1DB2D
:1016B0002C21654842884088401C634B588003F1C8
:1016C0000900815400201DE001210EE000EB8002A2
:1016D0005E4B1A44535C5C4A54885288521C5A4DE3
:1016E0006A8005F109021355491C0529EEDB2C22FD
:1016F00055494B884988491C534C618004F10901C4
:10170000CA54401C0628DFDB01200BE050490A5C6C
:101710004D494B884988491C4B4C618004F10901B3
:10172000CA54401C0628F1DB0A21474842884088F9
:10173000401C454B588003F1090081543E48008805
:101740003F49B1F90010884256DB3B4800883B49CD
:10175000B1F9001088424FDA00200AE039490A5CEA
:1017600039498B888988491C374CA1803949CA542A
:10177000401C0A28F2DB2C21334882888088401CD8
:10178000314B98803348815400201BE001210DE04B
:1017900000EB80022D4B1A44535C2B4A94889288AC
:1017A000521C294DAA802B4A1355491C0529EFDBF1
:1017B0002C2225498B888988491C234CA1802549E6
:1017C000CA54401C0628E1DB01200AE020490A5CDB
:1017D0001D498B888988491C1B4CA1801D49CA540E
:1017E000401C0628F2DB0A21174882888088401CAA
:1017F000154B9880174881540F480088401C0E49AB
:101800000880084600880E49B1F90010884205D1C9
:1018100001201149087000200B49488006480088C3
:101820000649B1F90010884205D102200A49087022
:1018300000200549888030BD3C0000203A0000208F
:1018400038000020A4010020C027002086010020CD
:101850004C000020C94700203E00002010B51A4867
:101860000078012815D11948C16805F03BFE184BD6
:101870004FF400521749154806F08AF8134806F04D
:101880002FF84FF400511348FEF7A1FC00200E4939
:1018900008700D480078022815D10C48C16805F081
:1018A00021FE0B4B4FF400520B49084806F070F82C
:1018B000064806F015F84FF400510748FEF787FC7C
:1018C00000200149087010BD3E000020E403002004
:1018D00054000020C9270020C94700200CB5002073
:1018E000019000903448006840F48030324908602C
:1018F00000BF3148006800F4003000900198401C9F
:101900000190009818B90198B0F5A04FF1D12A487C
:10191000006800F4003010B10120009001E00020C8
:1019200000900098012846D123484030006840F0DC
:1019300080502149403108602048006840F4404010
:101940001E4908601C48083000681B4908310860BF
:101950000846006840F4004008600846006840F40B
:10196000A05008601648091F0860081F006840F072
:101970008070091F086000BF0F48006800F0007009
:101980000028F9D040F205700E4908600A48083076
:10199000006820F003000849083108600846006824
:1019A00040F00200086000BF03480830006800F003
:1019B0000C000828F8D10CBD00380240007000402F
:1019C00019544007003C024010B500F001F810BD6A
:1019D00010B51B48006840B119480068401E1849FE
:1019E000086010B9012017490870002408E004EBD2
:1019F0004401154A02EB810004F0FDFC601CC4B2F6
:101A0000042CF4DB11480068401C104908600846AB
:101A100000686FF00041884202D100200B49086045
:101A200004F0E8FC0A480078401CC0B2084908707D
:101A30000A2803DB0020087004F0D8FC10BD000069
:101A4000580000205C0000203006002060000020CC
:101A50006400002010B51548006840F47000134978
:101A600008601348006840F0010011490860002038
:101A70000F49083108600E4800680E4908400C49BB
:101A800008600D48091D0860081F006820F48020C8
:101A9000091F0860002006490C310860FFF71EFF8F
:101AA0004FF0006001498039086010BD88ED00E00A
:101AB00000380240FFFFF6FE10300024F0B50C465F
:101AC000154600210022068C4FF6FE773E40068424
:101AD000018B028C4FF60C7631407E1C06EA031611
:101AE0002E4331434FF6F576324044F0010632433F
:101AF00001830284F0BDF0B50C461546002100229A
:101B00000026078C4FF6EF7C07EA0C070784018B51
:101B1000028C4FF6FF7707EA041640F6FF4739407C
:101B20004FF6FF7707EA033739434FF6FF7707EAA7
:101B3000052739434FF65F773A4046F010073A439E
:101B400001830284F0BDF0B50C4615460021002249
:101B50000026078C4FF6FF6C07EA0C070784818B81
:101B6000028C4FF6FF7707EA04264FF60C773940D0
:101B70004FF6FF7707EA03172F4339434FF2FF571A
:101B80003A4046F480773A4381830284F0BDF0B551
:101B90000C461546002100220026078C4EF6FF7CDD
:101BA00007EA0C070784818B028C4FF6FF7707EA60
:101BB000043640F6FF4739404FF6FF7707EA05271E
:101BC00039434FF6FF7707EA0337394345F6FF7786
:101BD0003A4046F480573A4381830284F0BD10B501
:101BE00002F07AF910BD000010B50120104908601C
:101BF0000121104800F05EF8012814D10D4800883A
:101C0000C0F3001028B90C480068401C0A4908605D
:101C100009E008480088C0F3001020B106480068B9
:101C2000401E054908600121024800F013F810BD6C
:101C300078000020000800407400002021B10288D4
:101C400042F08002028004E002884FF67F731A405F
:101C500002807047CA430282704721B1028842F075
:101C60000102028004E002884FF6FE731A400280EF
:101C70007047F0B50C4615461E4600210022002391
:101C80000189028B038C4FF6F877394021434FF6D8
:101C9000FC473A4040F201173A434FF6DD773B40AC
:101CA0004FF6FF7707EA06172F433B430181028374
:101CB0000384F0BD30B50246002000230024158ABD
:101CC00005EA0103958905EA010413B10CB101206D
:101CD00000E0002030BD70B505460C46208850B9A4
:101CE0002389A28861882846FFF7E8FEE188284614
:101CF00000F03CF825E0208804280AD12389A28836
:101D000061882846FFF7F7FEE188284600F037F89B
:101D100017E0208808280AD12389A28861882846EC
:101D2000FFF711FFE188284600F036F809E0238923
:101D3000A28861882846FFF72AFFE188284600F03C
:101D400034F870BD00210180418001218180002193
:101D5000C180018170471AB183890B43838102E0FE
:101D600083898B438381704741627047028B4FF6B2
:101D7000F3731A400283028B0A4302837047028B7B
:101D80004FF2FF331A400283028B4FF6FF7303EAD0
:101D900001231A4302837047828B4FF6F3731A4074
:101DA0008283828B0A4382837047828B4FF2FF3398
:101DB0001A408283828B4FF6FF7303EA01231A4392
:101DC0008283704700220288184B98420ED0184B2D
:101DD00098420BD0B0F1804F08D0164B984205D0F6
:101DE000154B984202D0154B984204D14FF68F7391
:101DF0001A404B881A43124B984207D0114B984215
:101E000004D04FF6FF431A400B891A4302804B68F7
:101E1000C3620B880385054B984202D0044B98425D
:101E200001D18B7A03860123838270470000014031
:101E3000000401400004004000080040000C004085
:101E4000001000400014004010B5024803F0B2FD3D
:101E500010BD00006006002010B5024803F036FDFA
:101E600010BD0000880E002010B5024803F02EFDC2
:101E700010BD0000B0160020042001490880704702
:101E80001804024004200149088070471A040240E7
:101E900010B5024803F01AFD10BD0000D81E002046
:101EA00001F40072B2F5007F00D100BFCA43028086
:101EB000704721B1828942F40052828104E0828914
:101EC0004DF6FF731A408281704770B502460024B8
:101ED00000230025002040F66A16B14200D100BF61
:101EE000C1F3421501F01F03012606FA03F3012D89
:101EF00002D19689334006E0022D02D1168A334082
:101F000001E0968A33400C12012606FA04F4168882
:101F1000344013B10CB1012000E0002070BDF0B5D9
:101F20000346002400260025002040F66A17B94227
:101F300000D100BF1846C1F3421401F01F0601276B
:101F400007FA06F5012C01D10C3004E0022C01D176
:101F5000103000E014301AB107682F43076002E028
:101F60000768AF430760F0BD2DE9FF4705460E4601
:101F70000024A14600BFA046B08900B100BF2C8A52
:101F800024F44054F08804432C82AC8941F20C6064
:101F90008443B08831890843718908430443AC8184
:101FA000AC8A24F44074B0890443AC826846FFF7DD
:101FB000E7FA2048854202D01F48854202D1DDF869
:101FC0000C9001E0DDF80890A88900F4004040B1D1
:101FD00009EBC90000EB091031684900B0FBF1F7CB
:101FE00007E009EBC90000EB091031688900B0FB7C
:101FF000F1F76420B7FBF0F004012009642101FB34
:102000001078A88900F4004040B1322000EBC800ED
:10201000B0FBF1F000F00700044308E0322000EBD1
:1020200008106421B0FBF1F000F00F0004432C8194
:10203000BDE8FF8700100140001401400146888878
:10204000C0F308007047C1F308028280704770B582
:1020500005460E46284600F0BEF904464FF6FF70CE
:10206000844205D046F4004105F28C5020F814104B
:10207000E0B270BD2DE9F04105460E4617461C46FC
:10208000012105F56B7000EB4410817005F56B7054
:1020900000EB4410C66005F56B7000EB441007615F
:1020A00005F56B7000EB4410007E30B9002105F59A
:1020B0006B7000EB4410017205E0022105F56B70B6
:1020C00000EB4410017221462846FEF714FE002062
:1020D000BDE8F0812DE9F04105460E4617461C4645
:1020E000002105F56B7000EB4410817005F56B70F5
:1020F00000EB4410C66005F56B7000EB44100761FF
:1021000005F56B7000EB4410407E28B905F56B7047
:1021100000EB4410017205E0022105F56B7000EB45
:102120004410017221462846FEF7E5FD0020BDE877
:10213000F0812DE9F04105460C4616461F46022166
:102140002175012161750021E1822683618306F0FA
:102150008000802805D105F56B7000EB47100176F3
:1021600005E0002105F56B7000EB47104176002378
:102170001A462146284600F02BF8BDE8F0810146BA
:102180000122C1F81023002070472DE9F0410546D7
:102190000E4617461C46012105F56B7000EB4410F6
:1021A0008170022105F56B7000EB4410017205F59A
:1021B0006B7000EB4410C66005F56B7000EB4410CB
:1021C000076121462846FEF796FD0020BDE8F08114
:1021D0002DE9F04180460C4615461E460127E07861
:1021E000012802D0022820D108E0324629462046A4
:1021F00001F0D9FC0220E070012717E0207F0D28B4
:1022000005D10120E0700021217700270CE0207F1C
:102210000B2803D10120E070022705E0207F0C2865
:1022200002D10120E070032700E000BF00BF384664
:10223000BDE8F0812DE9F04105460F4616461C46E3
:10224000002105F56B7000EB4410817005F56B7093
:1022500000EB4410C76005F56B7000EB441006619D
:102260002EB9012105F56B7000EB4410417605F5A0
:102270006B7000EB4410407E30B9002105F56B70A7
:1022800000EB4410017205E0022105F56B7000EBD4
:102290004410017221462846FEF72DFD0020BDE8BE
:1022A000F08170B505460E461446002105F56B70A9
:1022B00000EB44108170032105F56B7000EB4410B6
:1022C000017205F56B7000EB4410C660082105F53E
:1022D0006B7000EB4410016121462846FEF70BFDB0
:1022E000C0B270BD0246022106E0002302F28C500B
:1022F00020F81130481CC1B20829F6DB00207047D5
:1023000070B505460C46002020706070A07001205A
:10231000E070012121774021A171002084F8200084
:102320000121212001552179284600F023F8617907
:10233000284600F01FF8002070BD01460022C1F8B9
:1023400010230020704770B504460D46052D01D0BE
:10235000042D06D1D4F88010486C80470A202070E4
:1023600007E0062D05D10A202070D4F880100868F7
:10237000804770BD0246082909DA02F28C5030F815
:102380001100C0F30E0302F28C5020F8113000202F
:1023900070472DE9F04780460C4616461D46DDE99C
:1023A000089746F08001217506216175E58205F4E4
:1023B0007F40B0F5407F03D140F20941218301E025
:1023C0000021218367833B464A4621464046FFF76A
:1023D000FFFEBDE8F0870246002100BF0AE002F2DE
:1023E0008C5030F8110000F4004008B908467047DE
:1023F000481CC1B20829F2DB4FF6FF70F7E710B5B1
:1024000002460B88147823440B801378981810BD6B
:102410002DE9FC4104460D461646002704F5887058
:102420004FF4007300222946CDE900062046FFF74D
:10243000B0FFB0F1000814D106E004F58870C05D6B
:102440000949C855781C87B2B742F6DB04F5887392
:1024500005F1500205F13E0105F13400009601F04E
:10246000B5F94046BDE8FC81586E00202DE9FC41DD
:1024700004460D46164604F588704FF4807300221A
:102480002946CDE900062046FFF783FF071E06D147
:10249000324604F5887105F1220001F025FA38462C
:1024A000BDE8FC812DE9FC470446884615461E46DA
:1024B0000A9F04F5887045F4407300224146CDE937
:1024C00000072046FFF765FFB0F1000905D13A4645
:1024D000314604F5887001F056FA4846BDE8FC879D
:1024E0002DE9F04106460C464FF00008002500217A
:1024F000A174207F0C2876D2DFE800F0FD060F3DA6
:10250000466576919AC0D7ED627904F114013046A0
:10251000FFF7C7FE02212177EEE061793046FEF732
:10252000A4FB0546012D1FD1207D00F08007608BA4
:1025300058B141F2883072490880802F02D10321BE
:1025400021770CE00521217709E032206C490880D1
:10255000802F02D10921217701E007212177304620
:10256000FEF774FB208205E0032D03D10B212177B8
:102570000521A174C0E02379A2893046A168FFF744
:1025800004FE04212177B7E021793046FEF76DFB88
:102590000546012D01D109212177042D02D1607852
:1025A00020700FE0032D02D10B2121770AE0304685
:1025B000FEF74CFB218A401A51490988884201D90B
:1025C0000B21217798E00121627906F56B7000EB11
:1025D000421041766379A2893046A168FFF72AFE4E
:1025E0000621217788E086E061793046FEF73DFBE1
:1025F0000546012D02D1072121770FE0042D04D1DA
:10260000607820700C21217708E0022D02D105218D
:10261000217703E0032D01D10B2121776CE0237991
:10262000002211463046FFF7B0FD0821217763E014
:1026300021793046FEF719FB0546012D04D160785B
:1026400020700D21217718E0032D02D10B21217775
:1026500013E03046FEF7FAFA218A401A2849098821
:10266000884202D90B21217707E0042D05D160783B
:1026700020700421A1744FF003083DE0617906F554
:102680006B7000EB4110407E80F00101627906F52D
:102690006B7000EB421041766379002211463046A0
:1026A000FFF7C8FD0A21217726E061793046FEF761
:1026B000DCFA0546012D04D1607820700D212177C8
:1026C00008E0022D02D10921217703E0032D01D179
:1026D0000B21217710E0A07B401CC1B2A17302291D
:1026E00002DC0121217705E00821A17460782070C7
:1026F0004FF0020800E000BF00BF4046BDE8F08197
:10270000E800002070B592B005460C460126A0787E
:102710000A287AD2DFE800F00528375D667A97B498
:10272000D1DB082221462846FFF7A0FED8B994F84D
:102730002910A1712846FEF7D7FA0120A070A079D0
:102740000021CDE90010617900231A46284600F0E7
:1027500069FFA0790021CDE90010217900231A46F4
:10276000284600F05FFFB5E0122221462846FFF719
:102770007DFE38B9D4F88000C16904F12200884791
:102780000220A070A6E001222146284601F0E5F9CA
:10279000F0B9022001F0BCFB0120A41CA077D4F802
:1027A0007E10086A8047032020700020009001906E
:1027B000A27FA1780346284600F034FF0020009055
:1027C0000190A27FA41E61790346284600F02AFFEB
:1027D00080E0092221462846FFF71AFE08B90420A6
:1027E000A07077E0E28E21462846FFF711FE58B927
:1027F000D4F8800004F1500204F13E01436A04F170
:10280000340098470520A07064E062E094F830003E
:1028100088B1FF20009094F8302002AB2146284672
:10282000FFF740FE70B9D4F88000816A02A888479B
:102830000620A07006E0D4F88000816A27A08847AF
:102840000620A07046E094F8310088B1FF20009087
:1028500094F8312002AB21462846FFF723FE70B9D9
:10286000D4F88000C16A02A888470720A07006E05B
:10287000D4F88000C16A19A088470720A07029E019
:1028800094F8320088B1FF20009094F8322002AB17
:1028900021462846FFF706FE70B9D4F88000016B88
:1028A00002A888470820A07006E0D4F88000016BD9
:1028B0000AA088470820A0700CE094F8392021462F
:1028C000284601F05DF908B90920A07002E0002651
:1028D00000E000BF00BF304612B070BD4E2F410077
:1028E0002DE9F04106460F4614461D46DDF81880D6
:1028F000304601F0AFFA002001F094FA214630464C
:10290000FFF7FEFCE567C4F8808039463046FEF7E5
:10291000B7F9D4F8801008688047304601F084FA8F
:10292000BDE8F08170B505460C4621212175FF21D7
:1029300061750021E1822183618300231A462146CB
:102940002846FFF745FC70BD2DE9F04105460E46CF
:102950001446012714B1012C12D108E01048037865
:10296000C27831462846FFF7E4FB074609E00C48E9
:102970004378827831462846FFF7DBFB074600E0C4
:1029800000BF00BF07480068401C064908600846B1
:102990000068042800D904273846BDE8F08100000B
:1029A0003C680020A400002010B50246002000234F
:1029B000014C237010BD00002C6800202DE9F0416F
:1029C00005460F46002601242846FEF789F920B364
:1029D000154801782846FEF74DF906460D2E01D020
:1029E00002241CE0114800681149884216D10F48A2
:1029F000406810494968884211D10C48007B08B9E9
:102A000000240CE00948007B012801D1012406E0E4
:102A10000648007B022802D1022400E00224064876
:102A2000C4732046BDE8F0813C6800201C6800208B
:102A300055534253FC6700202C680020012812D116
:102A40000D490978491C0C4A1170114609780A2968
:102A500005DA0621094A11700121D1700AE00A2124
:102A6000064A117006E0022803D10A21034A1170B8
:102A700000E000BF70470000C00000202C6800206C
:102A800070B505460C46A1212175FE216175002116
:102A9000E1822183012161830123034A21462846E3
:102AA000FFF796FB70BD0000446800202DE9F04759
:102AB00081460F463E46012403254FF00008484654
:102AC000FEF70EF9002878D05E4800780B2875D202
:102AD000DFE800F0060D1E5566798A999E44B00025
:102AE000484600F05FFA012056490870A5E03946D3
:102AF0004846FFF717FF044614B9022051490870F1
:102B0000032C04D102204F4948700920087094E03A
:102B100039464846FFF7B4FF0446BCB94A48007A34
:102B2000494981F80802084690F8080200280ADDA1
:102B30004648007838B9012044490870D6F880101A
:102B4000086C804779E003203E490870032C04D1CB
:102B500003203C494870092008706EE07379002218
:102B600039464846FFF7E5FA04463CB900203649A5
:102B700081F8080233484078324908705DE04846E1
:102B800000F086FC05463DB904202E49087000205F
:102B90002F490870002402E02846FFF74FFF4CE061
:102BA000484600F097FB05464DB9052025490870B9
:102BB000002027490870002404E03FE03CE028465C
:102BC000FFF73CFF39E0484600F09CFA05463DB966
:102BD00008201C49087000201D490870002402E0EC
:102BE0002846FFF72BFF28E0484600F0E1FB0546AA
:102BF0002DB91448407813490870002402E0284693
:102C0000FFF71CFF19E03946484600F023F814E0AE
:102C1000D6F88010C86B804700F0FF08B8F1000FAD
:102C200003D108200749087003E0B8F1010F00D173
:102C3000062402E0042400E000BF00BF2046BDE8F7
:102C4000F08700002C6800203C680020D4000020A1
:102C5000C00000202DE9F047804689460024404608
:102C6000FEF73EF800287DD0C548007909287AD2C1
:102C7000DFE800F079051251A3FDFCFBFA00C14822
:102C800043781F22C0494046FFF724FA0120BC497F
:102C900048710220087170E1BA4841784046FDF75A
:102CA000E4FF0446012C26D10020B8490860022028
:102CB000B3494871B448007B00F08007B24880688F
:102CC000A8B1B1488068B2490860AD488068B14990
:102CD000086008460068B0490860802F03D10320CF
:102CE000A749087116E00420A549087112E00520E3
:102CF000A34908710EE0022C04D1A1484079A049F3
:102D0000087107E0042C05D10120A44908700820AF
:102D10009B49087131E19B4801784046FDF7A5FFCA
:102D20000446012C03D09648407903283AD000206D
:102D300096490860032092494871924880889449D6
:102D40000968884219D28F480378828891480168BF
:102D50004046FFF78FF98B4880888D490968081A2B
:102D60008B4901E00AE107E10860864880888949CB
:102D700009680844874908601EE08548006818B95A
:102D800005207F49087117E07E4803788048008855
:102D900082B2804801684046FFF76CF900207C4908
:102DA000086009E0042C07D100207C490870072046
:102DB0007349087105204871DFE072484178404648
:102DC000FDF753FF0446012C3BD100206F490860FA
:102DD00004206B4948716B48C0886D490968884276
:102DE0001AD268484378C2886A4801684046FFF7AB
:102DF00071F968480068684908606248C088654998
:102E000009680844634908605E48C08860490968E9
:102E1000081A5F49086042E05D48006818B905205B
:102E2000574908713BE0574843785948008882B2B7
:102E3000584801684046FFF74DF9002054490860A2
:102E40002DE0022C21D1534800685349096888427B
:102E500012D04C484378C288C088DFF838C1DCF80B
:102E600000C0ACEB000103E074E059E037E017E08C
:102E70004046FFF72FF912E042484378C2884548A0
:102E800001684046FFF726F909E0042C07D101202C
:102E90004249087008203A490871052048716CE0E1
:102EA0000520374948713E4888603F2088810D26BB
:102EB00004E000203A498855701EC6B2002EF8D1B1
:102EC0000020374908702F4803782D483F22816839
:102ED0004046FFF7CFF80620294908714DE0294800
:102EE00001784046FDF7C1FE0446012C0FD10020B9
:102EF00026490860052022494871084680780870F4
:102F000049464046FFF75AFD1D49C87307E0042CA7
:102F100005D10020214908700720194908712CE0CB
:102F2000002249464046FFF70FFD054665B91B489C
:102F30000078022803D108201149087109E01048DF
:102F400040790F49087104E0042D02D102200C4998
:102F5000C87312E0012249464046FFF7F5FC0546DA
:102F600025B9074840790649087104E0042D02D1CB
:102F700002200349C87300E000BF00BFBDE8F0872E
:102F80002C6800203C680020FC670020A400002082
:102F9000A8000020AC000020B0000020B4000020F9
:102FA0001C68002010B504462046FDF799FE48B184
:102FB0000748084908600848486000204873012015
:102FC0000649C8700020064908600649087010BD0F
:102FD00055534243FC670020504030202C680020AD
:102FE000A4000020C000002070B504460D46104823
:102FF000407860B10E484178204601F0FCF90C4859
:1030000041782046FFF7B6F9002009494870084882
:10301000007860B106480178204601F0ECF90448D8
:1030200001782046FFF7A6F900200149087070BD1D
:103030003C6800207CB506460D462C4694F84300BB
:10304000082856D194F84500502852D194F85200DF
:1030500000F0800038B194F852002949C870B4F8E3
:103060005400888006E094F8520025498870B4F82E
:103070005400C88094F85A0000F0800038B194F8E9
:103080005A001F49C870B4F85C00888006E094F8C4
:103090005A001B498870B4F85C00C88018488178D1
:1030A0003046FEF7D4FF164948700846C1783046CE
:1030B000FEF7CDFF124908700846C0880221CDE90D
:1030C00000102120035D94F820200D4841783046FF
:1030D00000F02EFB0A4880880221CDE90010212053
:1030E000035D94F8202006480178304600F020FB6C
:1030F00003E0D4F88010086C804700207CBD0000FD
:103100003C68002070B5054603262846FDF7E8FD1B
:10311000002855D02B48C078012802D002284DD174
:1031200027E03F2028498860802008730A208873A0
:1031300026482449886005208870102405E0002175
:1031400021480F300155601EC4B2002CF7D11A205F
:103150001D49C8733F211C484174C174012019499D
:103160000871072008700320C8730220C870032666
:1031700025E01448C07B80B91448807800F08000B6
:1031800018B101201249087302E0002010490873A9
:1031900001200C49C87000260FE00A48C07B0128B6
:1031A00003D10849C870012607E00648C07B022801
:1031B00003D101200349C870022600E000BF00BF10
:1031C000304670BD2C680020FC670020586A002043
:1031D000486A0020FFB581B007460E461D46032011
:1031E000394908703846FDF77BFD002867D037481D
:1031F000C078012802D002285FD139E034488560C8
:103200008020334908730A20887330488660102470
:1032100005E000212E480F300155601EC4B2002C7D
:10322000F7D128202A49C8739DF80F102848417407
:103230009DF80E1081749DF80D10C1749DF80C104E
:103240000175C5F34F2000909DF80110204881754D
:103250009DF80010C17501201C49087107200870F5
:103260000320C8730220C87003201749087025E0A6
:103270001648C07B50B93846FDF732FD30B1012009
:103280001249C87000201049087015E00F48C07B33
:10329000012807D13846FDF723FD18B101200B495D
:1032A000C87009E00948C07B022805D10120074900
:1032B000C87002200449087000E000BF00BF024847
:1032C000007805B0F0BD0000D50000202C6800207B
:1032D000FC67002070B5054603262846FDF700FD73
:1032E00000285AD02E48C078012802D0022852D196
:1032F00023E008202B498860802008730A20887307
:1033000029482749886004208870102405E000219E
:1033100024480F300155601EC4B2002CF7D125207F
:103320002049C87301201E49087107200870032036
:10333000C8730220C87003262EE01948C07BC8B9A4
:10334000194800781949C87017484078887016489D
:10335000807848701448C078087013488179134801
:1033600041721148C0791149087201200C49C87096
:1033700000260FE00A48C07B012803D10849C87025
:10338000012607E00648C07B022803D1012004493A
:10339000C870022600E000BF00BF304670BD0000CC
:1033A0002C680020FC670020586A0020486A002032
:1033B00070B5054603262846FDF792FC00285DD02F
:1033C0002F48C078012802D0022855D12BE03F2099
:1033D0002C498860802008730A2088732A4828496D
:1033E000886008468078487006208870102405E0C0
:1033F000002124480F300155601EC4B2002CF7D1C3
:1034000003202049C87300211E4801743F21C17464
:1034100001201B490871072008700320C87302208F
:10342000C870032629E01648C07BA0B91648017869
:103430001648C17114484178144881711248817846
:10344000124841711048C0781049087101200C4998
:10345000C87000260FE00A48C07B012803D1084944
:10346000C870012607E00648C07B022803D101206E
:103470000349C870022600E000BF00BF304670BD9F
:103480002C680020FC670020586A0020486A002051
:1034900070B5054603262846FDF722FC002846D0D5
:1034A0002448C078012802D002283ED124E0002020
:1034B0002149886008730620887320481D49886068
:1034C0003F20888103208870102405E000211A48DD
:1034D0000F300155601EC4B2002CF7D100201649F0
:1034E000C873012013490871072008700320C873AE
:1034F0000220C870032619E00E48C07B20B90120C5
:103500000C49C87000260FE00A48C07B012803D18F
:103510000849C870012607E00648C07B022803D18D
:1035200001200449C870022600E000BF00BF3046F9
:1035300070BD00002C680020FC6700201C68002083
:103540002DE9FF4182B007460E461D464FF00308A5
:103550003846FDF7C5FB00285BD03048C07801280D
:1035600002D0022853D138E02D48856000202C4934
:1035700008730A20887329488660102405E000211A
:1035800027480F300155601EC4B2002CF7D12A2005
:103590002349C8739DF81310214841749DF81210F7
:1035A00081749DF81110C1749DF810100175C5F358
:1035B0004F2001909DF80510194881759DF8041061
:1035C000C175012015490871072008700320C873D0
:1035D0000220C8704FF003081AE01048C07B28B9D9
:1035E00001200E49C8704FF000080FE00B48C07B67
:1035F000012802D10949C87008E00848C07B0228A8
:1036000004D101200549C8704FF0020800E000BF56
:1036100000BF404606B0BDE8F08100002C680020E5
:10362000FC6700202DE9F04704460D4617461E466C
:10363000DDE9089827B104F56B7000EB45100770C1
:1036400004F56B7000EB4510C088404508D0B8F118
:10365000000F05D004F56B7000EB4510A0F8068054
:1036600004F56B7000EB4510C078B04205D026B170
:1036700004F56B7000EB4510C6702946204600F03B
:10368000FBFE0020BDE8F08738B505460024002089
:103690000090284601F01BF9002847D0284601F089
:1036A00020F90090009808B9002038BD0098C0F3B8
:1036B000C00018B1284602F0D3F804430098C0F3C4
:1036C000001018B1284602F018F804430098C0F31F
:1036D000401018B1284601F052FE04430098C0F390
:1036E000806018B1284601F071FF04430098C0F3D0
:1036F000406018B1284601F01AFA04430098C0F35C
:10370000006018B1284601F0D1FE04430098C0F3D0
:10371000407018B1284601F0D1F904430098C0F375
:10372000405018B1284601F0DFF904432046BCE7B9
:103730002DE9F04704460D4617461E46DDE9088987
:1037400004F28C5010F8150000F07F0104F56B7046
:1037500000EB4510417004F28C5010F81500C0F3D6
:10376000C01104F56B7000EB4510817004F56B70AF
:1037700000EB4510077004F56B7000EB451080F806
:10378000058004F56B7000EB4510A0F8069004F579
:103790006B7000EB4510C670002104F56B7000EBF8
:1037A0004510017604F56B7000EB451041762EB99B
:1037B000012104F56B7000EB45100171294620468C
:1037C00000F05AFE0020BDE8F08700002DE9F04F20
:1037D00085B00646894692461D462C460027B846C7
:1037E00000BF2878307068787070A978E87801EBAD
:1037F000002070802879307168797071A879B07173
:10380000E879F071287A30720E98092864DD092071
:103810000090307902285ADCBB4653E069462046C6
:10382000FEF7EDFD0446607804284BD1A07847B23E
:1038300007EBC70000EB090BE078032842DA2146CA
:1038400002A800F08DF84FF000089DF80C00022847
:1038500038DC32E069462046FEF7D1FD0446607848
:1038600005282AD10AEB071000EBC80001901C487C
:103870000078B84206D01A490F7002A9584600F0E5
:103880006FF80CE02179607901EB00201549098877
:10389000884200DA15E002A9584600F061F8214696
:1038A000019800F04DF82179607901EB00200D4975
:1038B000088008F101004FFA80F89DF80C0040459F
:1038C000C8DC00BF7088BDF800108842A6DC00206C
:1038D000044908800249087005B0BDE8F08F000077
:1038E000EC000020EA00002010B50B7803704B7844
:1038F00043708C78CB7804EB032343800B790371FE
:103900004B7943718B798371CB79C371082A16DDAA
:103910000C7A4B7A04EB032303818C7ACB7A04EB89
:10392000032343810C7B4B7B04EB032383818B7B41
:103930008373CB7BC3730B7C03744B7C437410BDCC
:103940000A7802704A7842708A788270CA78C270A7
:103950000B794A7903EB022282808A79827170475F
:103960000A7802704A7842708A788270CA78C27087
:103970000A7902714A7942718A798271CA79C2716F
:103980000A7A0272704730B513464578032D14D178
:103990000578AD1E9D4202DC0578AD1E00E01D4697
:1039A000ACB2801C002204E0855C0D70491C951CA3
:1039B000AAB2A242F8DB00250D7030BD3EB5054627
:1039C0000C46022002902846FDF78AF930B920788B
:1039D00020B12078022801D00220207020780B2806
:1039E00075D2DFE800F006109CB44D687B87598CD7
:1039F0008D002846FDF774F920B101202070642065
:103A000000F086FAA4E0D4F880108868804700218E
:103A10002846FEF71CFB607180212846FEF717FB45
:103A200020712846FDF760F948BBD4F88010C868BB
:103A300080472846FDF70FF9C1B221200155042027
:103A400020702122105DD4F8802091698847A079E8
:103A50000021CDE900102120035D94F82020217978
:103A60002846FFF765FEA0790021CDE9001021204E
:103A7000035D94F8202061792846FFF759FE67E03E
:103A800021462846FEF73EFE28B9D4F88010486B40
:103A90008047082020705BE0D4F88010886B804756
:103AA000012807D1E06F214602682846904708B9EF
:103AB000052020704CE0E06F214682682846904740
:103AC00002909DF8080018B90620207005E03EE03D
:103AD0009DF808102046FEF736FC39E0E06F2146DD
:103AE000C2682846904702909DF808102046FEF7CD
:103AF0002AFC2DE021462846FEF7F2FC28E027E0CC
:103B000021462846FEF7FCFBD4F880104868804721
:103B1000E06F04F1200142682846904718E0D4F88D
:103B200080100869804721462846FEF7E9FBD4F853
:103B3000801048688047E06F04F120014268284601
:103B400090472846FEF7CEFB0020207000E000BF23
:103B500000BF3EBD01460020704770B506460C46CA
:103B600015460021217505216175E582002121831B
:103B7000618300231A4621463046FEF729FB70BDBB
:103B800070B506460C461546002121750921617560
:103B9000E58200212183618300231A4621463046B5
:103BA000FEF716FB70BD10B5034618785870072055
:103BB000187099609A8101241C77002010BD0000C4
:103BC0002DE9F04106460C46174625466879082837
:103BD00003D1064802F01EF805E06879032802D1F7
:103BE000034802F017F8BDE8F08100000132030835
:103BF000233203087047704710B5024802F00AF8F4
:103C000010BD00004B31030810B5024802F002F865
:103C100010BD00006031030810B502A001F0FAFFEA
:103C200010BD00003E20446576696365206E6F74A8
:103C300020737570706F727465642E0D0A00000039
:103C400010B504461CB90A4801F0E4FF0EE0012C4F
:103C500003D1084801F0DEFF08E0022C03D106483A
:103C600001F0D8FF02E0054801F0D4FF10BD0000CC
:103C700093310308B2310308D1310308EF3103084F
:103C800070B504462546298903A001F0C3FF698960
:103C900005A001F0BFFF70BD3E20564944203A20E8
:103CA00025303458680D0A003E20504944203A20FF
:103CB00025303458680D0A0010B5024801F0AAFFFB
:103CC00010BD00007831030810B50848007858B9D5
:103CD00001200649087006A001F09CFF0AA001F02F
:103CE00099FF11A001F096FF10BD000038010020DF
:103CF0003E20555342204F5447204853204D5343B4
:103D000020486F73740D0A003E2055534220486FBF
:103D10007374206C69627261727920737461727459
:103D200065642E0D0A0000002020202020555342FB
:103D300020486F7374204C69627261727920763208
:103D40002E312E300D0A00000020704710B50446B9
:103D5000214602A001F05EFF10BD00003E204D6133
:103D60006E756661637475726572203A2025737290
:103D70000D0A000010B502A001F04CFF10BD0000BC
:103D80003E204F76657263757272656E742064654D
:103D90007465637465642E0D0A00000010B5044656
:103DA000214602A001F036FF10BD00003E205072F7
:103DB0006F64756374203A2025730D0A00000000BB
:103DC00010B502A001F026FF10BD00003E205553A3
:103DD00042485F5553525F52657365744465766916
:103DE0006365200D0A00000010B50446214602A0BC
:103DF00001F010FF10BD00003E2053657269616C38
:103E0000204E756D626572203A2025730D0A000000
:103E100010B5024801F0FEFE10BD0000BB320308E1
:103E2000012070477047704738B504464FF4C060B2
:103E3000FDF748FB4D208DF8000001208DF80100B2
:103E400003208DF8020001208DF803006846FDF77D
:103E5000FDFA38BD1CB5044601210220FDF750FBD8
:103E60004FF44040009003208DF8050002208DF8AB
:103E7000040069460948FCF77EFE0C220E21074823
:103E8000FCF7C1FE0C220F210448FCF7BCFE012107
:103E90004807FDF735FB00F003F81CBD00040240A5
:103EA00008B500214FF00060FDF716FB4FF4A0604D
:103EB000FDF708FB1C208DF8000001208DF80100A3
:103EC0008DF802008DF803006846FDF7BFFA012166
:103ED0000846FDF735FB08BD10B501218807FDF741
:103EE000E9FE88B101218807FDF7B4FE07480068A4
:103EF00028B106480068401E0449086004E000211B
:103F00004FF08040FDF7A9FE10BD000040010020E9
:103F100010B5044601212046FCF7CEFB10BD10B5BC
:103F2000044602212046FCF7C7FB10BD3EB50446FF
:103F300000250020029001900090207A012843D1B2
:103F4000E068806B0190019820F480300190607AE5
:103F500028B1019820F4801000F58010019001989C
:103F6000E168886300200290E068C06802900298CF
:103F700020F040000290029820F4801000F580109C
:103F80000290029820F480000290029820F4003001
:103F90000290029820F4002002900298E168C86024
:103FA000204600F0C9F8E078012843D1009820F0BD
:103FB0001E000A300090009820F020002030009071
:103FC0000098E168886035E0E068C0680290029877
:103FD00020F04000403002900298E168C86020461E
:103FE00000F0AAF800200190019820F4803000F53C
:103FF00080300190019820F4802000F5802001900D
:10400000019820F4002000F500200190019820F490
:10401000001000F500100190607A28B1019820F49A
:10402000801000F5801001900198E16888631420E9
:10403000FFF76EFFE07801280FD1E06880680090FC
:10404000009820F01E000A300090009820F0200018
:10405000203000900098E168886028463EBDFEB59B
:104060000446002600250020029001900090204682
:10407000FFF7D8FE0021D4F80C010160207A012856
:1040800003D1204600F00FFC03E00121204600F0A0
:104090000AFC204600F05DFC606900680090009812
:1040A00020F004000090009960690160E07A00BB94
:1040B0004FF40070E168486202986FF30F0000F55A
:1040C00000700290029880B200F180700290029815
:1040D000E168886201986FF30F0000F5407001906D
:1040E000019880B200F1807001900198E168C1F8F8
:1040F00000011021204600F021F9204600F0F8F8D8
:1041000000250DE04FF0FF3104F1900050F825003C
:104110008160002104F1900050F82500C1606D1C01
:104120002078A842EED80121204600F04EF8204623
:1041300000F0A4F83046FEBDF8B504460026002580
:104140000020009000BF0320FFF7E9FEE06800694F
:104150000090681C05461349884201D90020F8BD2B
:104160000098C00F0028EED00025009820F0010034
:10417000401C00900098E168086100BFE068006999
:104180000090681C05460749884200D904E0009861
:1041900000F001000028F1D100BF0320FFF7BFFEAF
:1041A0003046DCE7400D030008B501460020002240
:1041B0000092009A22F00102521C0092CA68926892
:1041C000009B9A43CB689A6008BD38B505460C46FB
:1041D0000020009021462846FFF725FE284600F0E3
:1041E00088FB00900098C0F3003058B9012C09D129
:1041F000009820F4805000F5805000900099D5F888
:10420000CC0001600098C0F3003040B13CB9009888
:1042100020F4805000900099D5F8CC000160C820AF
:10422000FFF776FE38BD08B500210091491EC2682F
:1042300051606FF08041C2685161009921F00041E6
:1042400001F100410091009921F4006101F5006144
:1042500000910099C268916108BD08B5014600202F
:1042600000220092009A22F00102521C0092CA68B9
:104270009268009B1A43CB689A6008BD38B5044623
:10428000002500200090E1688861401EE1684861D7
:104290002046FFF7C8FFE07820B9009820F0100012
:1042A00010300090009820F0807000F18070009035
:1042B000009820F0007000F100700090009820F04D
:1042C000005000F100500090009820F008000830E5
:1042D0000090009820F4001000F500100090E068B5
:1042E0008069009988430843E1688861284638BDA1
:1042F000F8B504460025002600200090009820F024
:104300001000103000900098E168086100BFE0687C
:1043100000690090701C06460749884200D904E0F5
:104320000098C0F300100028F1D100BF0320FFF770
:10433000F6FD2846F8BD0000400D0300F8B5044620
:104340000D460026002700200090009820F0200055
:1043500020300090009865F38A1000900098E16882
:10436000086100BFE06800690090781C07460749B3
:10437000884200D904E00098C0F340100028F1D131
:1043800000BF0320FFF7CBFD3046F8BD400D030012
:104390000146C868406900F0010070471CB502463C
:1043A000002000230093009B23F0004303F100430F
:1043B00000930124009B64F3DC43009302F190031B
:1043C00053F82130009C1C6102F1900353F8213016
:1043D0001B680193019B23F0004303F10043019309
:1043E000019B23F08043019302F1900353F82130A5
:1043F000019C1C601CBD10B586B002460020002345
:104400000393019302F1900353F821301B6800934A
:10441000009B23F0004303F100430093009B23F033
:10442000804303F180430093009BC3F3814323B196
:10443000009BC3F38143022B0BD1D368DB6A039348
:10444000039BC3F307437BB9009B23F00043009316
:104450000AE053691B690193019BC3F307431BB92E
:10446000009B23F00043009302F1900353F82130A6
:10447000009C1C6006B010BD3FB502460020002322
:104480000024029403940194441E009402F19004C9
:1044900054F82140009DA56000240394D478012C99
:1044A00004D1039C24F00404241D039402F56B74CE
:1044B00004EB4114647934B1012C6AD0022C03D08E
:1044C000032C38D138E000BF039C24F00104641CA5
:1044D0000394039C24F0080408340394039C24F000
:1044E000800480340394039C24F4806404F5806485
:1044F0000394039C24F010041034039402F56B74AD
:1045000004EB4114A47834B1039C24F4807404F5C2
:10451000807403940FE0039C24F04004403403941F
:1045200002F56B7404EB4114247924B1039C24F04C
:104530002004203403944EE0039C24F00104641C06
:104540000394039C24F0100410340394039C24F07F
:10455000080408340394039C24F0800480340394FA
:10456000039C24F4806404F580640394039C24F485
:10457000007404F50074039402F56B7404EB4114A9
:10458000A4782CB1039C24F4807404F58074039403
:1045900021E0039C24F00104641C0394039C24F494
:1045A000007404F500740394039C24F02004203468
:1045B000039402F56B7404EB4114A47854B1039C8A
:1045C00024F0800480340394039C24F4807404F564
:1045D0008074039400BF00BF02F1900454F821409E
:1045E000039DE560012404FA01F35469A4691C43A6
:1045F0005569AC61029C24F0007404F100740294CB
:10460000D468A469029D2C43D568AC610024019450
:1046100002F56B7404EB41142578019C65F39C54FE
:10462000019402F56B7404EB41146578019C65F309
:10463000CE24019402F56B7404EB4114A578019C1F
:1046400065F3CF34019402F56B7404EB4114E47804
:10465000022C01D1012500E00025019C65F35144A5
:10466000019402F56B7404EB41146579019C65F3C8
:104670009344019402F56B7404EB4114E588019CAA
:1046800065F30A04019402F56B7404EB4114647938
:10469000032C05D1019C24F0005404F10054019432
:1046A00002F1900454F82140019D256004B030BD12
:1046B0002DE9F04388B004460D464FF00009C84686
:1046C0004FF48077002006900790009004F56B70FF
:1046D00000EB4510006910B304F56B7000EB45105A
:1046E000016904F56B7000EB4510C0880144491E58
:1046F00004F56B7000EB4510C088B1FBF0F086B29A
:10470000BE420DDD3E4604F56B7000EB4510C188DE
:10471000714304F56B7000EB4510016100E0012668
:1047200004F56B7000EB4510807850B104F56B70A8
:1047300000EB4510C188714304F56B7000EB451028
:10474000016104F56B7000EB45100169069861F397
:1047500012000690069866F3DC40069004F56B7034
:1047600000EB4510017A069861F35E70069004F143
:10477000900050F8250006990161E078012809D1E0
:1047800004F56B7000EB4510C16804F1900050F81F
:104790002500416104F1900050F825000068079061
:1047A000204600F08CF8079960F35D710791079837
:1047B00020F0004000F100400790079820F0804072
:1047C000079004F1900050F8250007990160E07807
:1047D000002864D104F56B7000EB45108078002848
:1047E0005DD104F56B7000EB45100069002856D0D0
:1047F00004F56B7000EB4510407930B1012821D0F1
:10480000022803D0032839D11BE000BFE068C06A4A
:10481000039004F56B7000EB45100069C01CC0F3F9
:104820008F08039880B240450ADA009820F02000F3
:1048300020300090E068806900990843E168886151
:104840001DE000BF60690069019004F56B7000EB2A
:1048500045100069C01CC0F38F08019880B2404524
:104860000BDA009820F0806000F180600090E06832
:10487000806900990843E168886100E000BF00BFDB
:1048800004F56B7000EB4510008A83B204F56B7081
:1048900000EB45102A46C168204600F0F7FF484665
:1048A00008B0BDE8F08308B5426912680092009A2A
:1048B00061F301020092009B4269136008BD01464A
:1048C0004869806800F0010080F00100704700B581
:1048D00002461046FFF75CFD012800D100BD002014
:1048E000FCE701460020CA685069CA689269104016
:1048F000704708B50146D1F8CC00006800900098D8
:1049000020F004000090009820F002000090009831
:1049100020F008000090009820F0200000900098FF
:1049200008BD0146486940697047F0B50346002458
:10493000D01CC71700EB9777BD10D3F8D06000BF2D
:1049400003E030680860641C091DAC42F9D30846D6
:10495000F0BD38B504462046FFF7CBFF0090009825
:1049600020F4807000F5807000900099D4F8CC009D
:1049700001600A20FFF7CCFA009820F480700090C4
:104980000099D4F8CC0001601420FFF7C1FA01208F
:1049900038BD000070B502460C46002300200025FB
:1049A000D5700125957040259580012C0CD14FF0D4
:1049B000A0430125D57208251570042555709D1555
:1049C000D580022515720EE06CB9274B0025D572F3
:1049D0000C251570062555704FF4A065D58002256D
:1049E00015720125D570D36003F5006515610021AE
:1049F00010E003F5106505EB411602F1180545F8C6
:104A0000216003F5306505EB411602F1540545F8C8
:104A10002160491C55788D42EBD803F580655561BE
:104A20004035C2F8CC50002108E003F5A06505EB45
:104A3000411602F1900545F82160491C15788D4218
:104A4000F3D8002108E003F5805505EB013602F1AB
:104A5000D00545F82160491C15788D42F3D803F53F
:104A60006065C2F80C5170BD00000440F8B5044602
:104A70000D460026E068C0680090009820F00050C5
:104A80000090009820F080400090012D06D1009801
:104A900020F0005000F10050009006E02DB9009881
:104AA00020F0804000F1804000900098E168C860EC
:104AB0003220FFF72DFA3046F8BD000038B5044625
:104AC00000200090074800688168204688470098C9
:104AD00020F0005000F1005000900098E16848611B
:104AE000012038BDE40000200CB50146D1F890004B
:104AF00000680090009820F0004000F10040009015
:104B0000009820F0804000F180400090009AD1F899
:104B10009000026000200190019820F4001000F540
:104B2000001001900198CA68506101200CBD7CB54D
:104B30000546002400262846FFF7F3FE019000BF3B
:104B40001BE0019880B20121A1400840A0B105F10D
:104B5000900050F82400006800900098C0F3C03026
:104B600028B12146284600F00DF8064304E021460E
:104B7000284600F01CFA0643641C2878A042E0D8BE
:104B800030467CBD70B586B005460C4605F19000F8
:104B900050F82460B0680590F0680490DDE90410D6
:104BA0000840059005F1900050F82400006803903B
:104BB000002004900598C0F38000D0B1002001903F
:104BC000019820F00400001D01900198B06005F1EB
:104BD000900050F82400C0680190019820F0020075
:104BE000801C019005F1900050F824000199C160EB
:104BF00073E00598C0F3401048B10020019001987F
:104C000020F02000203001900198B06065E0059808
:104C1000C0F3C00078B305F1900050F82400C068DC
:104C20000190019820F00200801C019005F1900095
:104C300050F824000199C160052105F56370015504
:104C400000200190019820F0100010300190019890
:104C5000B06000200190019820F008000830019019
:104C60000198B060059820F010000590E1B2284648
:104C7000FFF7C1FB31E0FFE70598C0F3802060B388
:104C800005F1900050F82400C0680190019820F0D0
:104C90000200801C019005F1900050F82400019959
:104CA000C160E1B22846FFF7A6FB00200190019801
:104CB00020F01000103001900198B060082105F537
:104CC0006370015500200190019820F4806000F588
:104CD000806001900198B06000BF0598C0F340204B
:104CE000F8B105F1900050F82400C06801900198D7
:104CF00020F00200801C019005F1900050F8240083
:104D00000199C160E1B22846FFF775FB00200190D0
:104D1000019820F4007000F5007001900198B060D7
:104D200042E1059800F00100002871D0E8780128E0
:104D300012D105F1900050F824000069029005F5A9
:104D40006B7000EB441000690299C1F31201411A23
:104D500005F5547040F82410012105F563700155E4
:104D60000021783840F8241000200190019820F0AC
:104D70000100401C01900198B0600398C0F381408D
:104D800020B10398C0F3814002282AD105F1900098
:104D900050F82400C0680190019820F00200801CA7
:104DA000019005F1900050F824000199C160E1B232
:104DB0002846FFF720FB00200190019820F010000A
:104DC000103001900198B06005F56B7000EB441055
:104DD000007E80F0010105F56B7000EB4410017658
:104DE000E2E00398C0F38140032899D1039820F0B2
:104DF000005000F10050039005F1900050F824009D
:104E000003990160012105F29B300155CCE0FFE7D9
:104E10000598C0F34000002851D005F1900050F8EB
:104E20002400C0680190019820F00200019005F173
:104E3000900050F824000199C16005F56370005D91
:104E4000012804D1012105F29B3001552DE005F523
:104E50006370005D052804D1042105F29B300155E3
:104E600023E005F56370005D062804D005F5637046
:104E7000005D082808D1002105F5457040F8241090
:104E800003218730015510E00398C0F381400328C7
:104E90000BD105F56B7000EB4410007E80F0010132
:104EA00005F56B7000EB441001760020019001982D
:104EB00020F00200801C01900198B06074E0059819
:104EC000C0F3C01040B305F1900050F82400C06852
:104ED0000190019820F00200801C019005F19000E3
:104EE00050F824000199C16005F5457050F8241070
:104EF000491C40F82410062178300155E1B22846BB
:104F0000FFF779FA00200190019820F080008030AE
:104F100001900198B06047E00598C0F30010E8B335
:104F20000398C0F38140032815D105F1900050F893
:104F30002400C0680190019820F00200801C0190BC
:104F400005F1900050F824000199C160E1B22846B3
:104F5000FFF751FA18E00398C0F3814020B103989D
:104F6000C0F3814002280FD1039820F0004000F1E7
:104F700000400390039820F08040039005F19000DA
:104F800050F8240003990160032105F56370015571
:104F900000200190019820F0100000E004E01030A3
:104FA00001900198B06000BF012006B070BD7FB5D0
:104FB00005460C4605F1900050F82460B068039057
:104FC000F0680290DDE902100840039005F19000BE
:104FD00050F82400006801900398C0F38000D0B11D
:104FE00000200090009820F00400001D0090009820
:104FF000B06005F1900050F82400C068009000985F
:1050000020F00200801C009005F1900050F8240070
:105010000099C160B0E10398C0F3401048B100208E
:105020000090009820F02000203000900098B060A0
:10503000A2E10398C0F34020F8B105F1900050F8C8
:105040002400C0680090009820F00200801C0090AE
:1050500005F1900050F824000099C160E1B22846A3
:10506000FFF7C9F900200090009820F4007000F5C7
:10507000007000900098B0607EE1039800F001009D
:1050800038B3002105F5457040F8241005F1900073
:1050900050F82400C0680090009820F00200801CA6
:1050A000009005F1900050F824000099C160E1B231
:1050B0002846FFF7A0F900200090009820F001009A
:1050C000401C00900098B060012105F56370015507
:1050D00052E10398C0F3C00010B300200090009884
:1050E00020F00800083000900098B06005F19000B2
:1050F00050F82400C0680090009820F00200801C46
:10510000009005F1900050F824000099C160E1B2D0
:105110002846FFF770F9052105F5637001552BE16D
:105120000398C0F3001038B3002105F5457040F82E
:10513000241005F1900050F82400C06800900098F9
:1051400020F00200801C009005F1900050F824002F
:105150000099C160E1B22846FFF74DF900200090A8
:10516000009820F01000103000900098B0600321EB
:1051700005F563700155FFE00398C0F3C01040B31C
:1051800005F1900050F82400C0680090009820F0CD
:105190000200801C009005F1900050F82400009956
:1051A000C160E1B22846FFF726F905F5457050F8D1
:1051B0002410491C40F824100621783001550020A5
:1051C0000090009820F08000803000900098B0603F
:1051D000D2E00398C0F3801038B3002105F5457084
:1051E00040F8241005F1900050F82400C0680090A9
:1051F000009820F00200801C009005F1900050F80B
:1052000024000099C160E1B22846FFF7F4F80020BD
:105210000090009820F04000403000900098B0606E
:10522000042105F563700155A6E00398C0F38020C2
:1052300060B305F1900050F82400C0680090009819
:1052400020F00200801C009005F1900050F824002E
:105250000099C160E1B22846FFF7CDF80020009028
:10526000009820F01000103000900098B0600821E5
:1052700005F56370015500200090009820F48060CF
:1052800000F5806000900098B06075E00398C0F36E
:105290004000002870D005F1900050F82400C0684C
:1052A0000090009820F00200009005F1900050F866
:1052B00024000099C16005F56370005D012815D1D7
:1052C000012105F29B3001550198C0F3814002286D
:1052D00048D105F56B7000EB4410407E80F0010171
:1052E00005F56B7000EB441041763BE005F563700B
:1052F000005D032804D1022105F29B30015531E005
:1053000005F56370005D04280FD105F56B7000EBA7
:1053100044100079012803D1E1B22846FFF73EF896
:10532000022105F29B3001551CE005F56370005D1C
:10533000052804D1042105F29B30015512E005F542
:105340006370005D06280DD105F5457050F8240006
:10535000032807D1032105F29B300155002187382E
:1053600040F8241000200090009820F00200801CDB
:1053700000900098B06000BF012004B070BD7FB500
:105380000446E068C06A00900198C0F3C30104F5C8
:105390006B7000EB41100069C01CC0F38F0673E016
:1053A0004FF6FF71009801EA80050198C0F3C30130
:1053B00004F56B7000EB41100069A84215D201980A
:1053C000C0F3C30104F56B7000EB4110008A85B295
:1053D00000200390039820F0200020300390E06824
:1053E000806903998843E16888610198C0F3C3012B
:1053F00004F56B7000EB41100069C01CC0F38F0610
:105400000198C0F3C302C0F3C30304F56B7000EB53
:1054100043102B46C168204600F038FA0198C0F3CB
:10542000C30104F56B7000EB4110C068411901988D
:10543000C0F3C30204F56B7000EB4210C160019829
:10544000C0F3C30104F56B7000EB41100069411B10
:105450000198C0F3C30204F56B7000EB42100161C8
:105460000198C0F3C30104F56B7000EB4110406973
:1054700041190198C0F3C30204F56B7000EB4210B0
:105480004161E068C06A0090009880B2B0420ADDD5
:105490000198C0F3C30104F56B7000EB4110006983
:1054A00000287FF47DAF012004B070BDFEB5044636
:1054B000002600250020009002900190D4F8CC0036
:1054C00000680290D4F8CC0000680190019820F0A8
:1054D00004000190019820F002000190019820F052
:1054E00008000190019820F0200001900298C0F37C
:1054F000400058B1019820F00200801C0190324811
:10550000006841682046884745F001050298C0F3CD
:10551000C000002842D0019820F008000830019017
:105520000298C0F38000002838D0274800684168FE
:10553000204688470298C0F34140022804D00298D0
:10554000C0F34140012828D16069006800900298AA
:10555000C0F34140022811D141F27071606941608D
:10556000009800F00300022818D0207A022803D106
:1055700002212046FFF797F901260FE04BF6803114
:1055800060694160009800F00300012806D0012105
:105590002046FFF788F9012600E001260298C0F3B3
:1055A000401030B1019820F020002030019045F0EB
:1055B000010516B12046FFF7CCF90199D4F8CC00CB
:1055C00001602846FEBD0000E4000020FEB5044650
:1055D0006069006900900198C0F3C30104F56B7025
:1055E00000EB41100069C01CC0F38F0674E04FF659
:1055F000FF71009801EA80050198C0F3C30104F52A
:105600006B7000EB41100069A84216D20198C0F3FC
:10561000C30104F56B7000EB4110008A85B20020D5
:105620000290029820F0806000F180600290E068B3
:10563000806902998843E16888610198C0F3C301D9
:1056400004F56B7000EB41100069C01CC0F38F06BD
:105650000198C0F3C302C0F3C30304F56B7000EB01
:1056600043102B46C168204600F010F90198C0F3A2
:10567000C30104F56B7000EB4110C068411901983B
:10568000C0F3C30204F56B7000EB4210C1600198D7
:10569000C0F3C30104F56B7000EB41100069411BBE
:1056A0000198C0F3C30204F56B7000EB4210016176
:1056B0000198C0F3C30104F56B7000EB4110406921
:1056C00041190198C0F3C30204F56B7000EB42105E
:1056D0004161606900690090009880B2B0420ADDC3
:1056E0000198C0F3C30104F56B7000EB4110006931
:1056F00000287FF47CAF0120FEBD30B585B00446A4
:10570000002000900390039820F0100010300390C8
:10571000E068806903998843E1688861E068006A0D
:105720000490049800F00F00009004F190009DF8A0
:10573000001050F82100006801900498C0F3434025
:10574000022806D0032878D0052877D0072873D1FF
:1057500075E00498C0F30A10002869DD04F56B7049
:105760009DF8001000EB4110C068002860D004983C
:10577000C0F30A1204F56B709DF8003000EB431083
:10578000C1682046FFF7D1F8049800F00F0104F536
:105790006B7000EB4110C0680499C1F30A11014419
:1057A000049800F00F0204F56B7000EB4210C1602A
:1057B000049800F00F0104F56B7000EB4110406994
:1057C0000499C1F30A110144049800F00F0204F592
:1057D0006B7000EB4210416104F56B709DF8001096
:1057E00000EB4110456904F554709DF8001040F835
:1057F000215004F190009DF8001050F8210000693C
:1058000002900298C0F3C940002811DD019820F0F1
:10581000004000F100400190019820F0804001908C
:1058200004F190009DF80020019950F822000160D9
:1058300006E002E002E0FFE700BF00BF00BF00BFDC
:1058400000BF039820F0100010300390E0688069DA
:1058500003990843E1688861012005B030BD00006C
:1058600038B50446002000900748006801682046CB
:105870008847009820F00800083000900098E16800
:105880004861012038BD0000E40000202DE9F0410E
:1058900004460026E078B0B900270020DD1C4FEA5E
:1058A000E57805EB98784FEAA80704F1D00555F89C
:1058B00022C000BF04E00D68CCF80050401C091D58
:1058C000B842F8D300BF3046BDE8F08110B50446B9
:1058D00040F225512068FCF7F8FAE0B12068FCF7A7
:1058E000ADFBE28AA1688854E08A401C80B2E08265
:1058F000E189884201DB0020E082608BE1898842F7
:1059000002DA608B401C6083608B012803D1606ADF
:1059100008B1606A804740F227712068FCF7D5FA29
:1059200008B3A08A60B9002240F227712068FCF712
:10593000F6FA012240F226612068FCF7F0FA37E01F
:10594000638A6268D15C2068FCF77DFB608A401C3A
:1059500080B26082A189884201DB00206082A08A37
:10596000401EA08224E040F226612068FCF7ADFAD8
:10597000F0B1A08A50B9002240F226612068FCF7FD
:10598000CEFA206AA0B1206A804711E0638A62687B
:10599000D15C2068FCF757FB608A401C80B26082B3
:1059A000A189884201DB00206082A08A401EA0827B
:1059B00010BD000070B5044640F225513648FCF792
:1059C00084FAD8B13448FCF739FBC5B233480088B3
:1059D00000F4004090B931480088082808DA2F48C0
:1059E00001880088401C2D4A10802D48455405E050
:1059F0002A48008840F400402849088040F2277176
:105A00002068FCF762FA08B3A08A60B9002240F26D
:105A100027712068FCF783FA012240F22661206892
:105A2000FCF77DFA37E0638A6268D15C2068FCF796
:105A30000AFB608A401C80B26082A189884201DB37
:105A400000206082A08A401EA08224E040F22661ED
:105A50002068FCF73AFAF0B1A08A50B9002240F26F
:105A600026612068FCF75BFA206AA0B1206A8047B3
:105A700011E0638A6268D15C2068FCF7E4FA608A0E
:105A8000401C80B26082A189884201DB00206082D4
:105A9000A08A401EA08270BD001001406E00002050
:105AA000660000202DE9F04104460E461746002509
:105AB00027E00CE0012000F0E3F8B4F814800020A7
:105AC00000F0DEF8A089404500DD01E000BFF1E70D
:105AD00000BF705D228A61688854012000F0D0F810
